:100000000C942A000C9434000C9434000C943400AA
:100010000C9434000C9434000C9434000C94340090
:100020000C9434000C9434000C9434000C94340080
:100030000C9434000C9434000C9434000C94340070
:100040000C9434000C9434000C9434000C94340060
:100050000C94340011241FBECFE5D4E0DEBFCDBF29
:100060000E9436000C948E000C940000DF93CF9316
:10007000CDB7DEB70E94400081E60E945A00FCCF57
:10008000DF93CF93CDB7DEB7E7E3F0E080EB80837B
:10009000EDE2F0E080E58083EEE2F0E081E0808355
:1000A000A8E3B0E0E8E3F0E0808180618C93CF9139
:1000B000DF910895DF93CF930F92CDB7DEB7898399
:1000C000EFE2F0E089818083EEE2F0E08081882336
:1000D000DCF7EFE2F0E080810F90CF91DF9108959F
:1000E000DF93CF93CDB7DEB7E7E3F0E080E4808322
:1000F000EDE2F0E080E48083CF91DF910895DF931B
:10010000CF93CDB7DEB7EEE2F0E080818823DCF755
:10011000EFE2F0E08081CF91DF910895F894FFCF76
:00000001FF
